:060000000A128A110C280F
:10000800FE00030EF0000A08F1000A128A11E8291E
:100018000A128A110F2883120313A001A101A20159
:10002800A301A401A501A601A701A801A901AA018C
:10003800AB01AC01AD0183010A128A112328831692
:10004800031386018501071487140510851005120E
:100058008B170B178B16073081003B308312031365
:1000680081000A128A11C9210A128A118312031304
:10007800AE01AF01071C412842286B280230FA0064
:100088004530F900A930F800F80B4828F90B482842
:10009800FA0B48284F2883120313071C54285528A5
:1000A8006B28AC01AD01AE0180300A128A116E21B5
:1000B8000A128A111D30F5000830F6000A128A115A
:1000C80004220A128A118312031305100512013043
:1000D8002D02F43003192C020318732874289A2867
:1000E8002E08031D782879289A2880300A128A1148
:1000F8006E210A128A111D30F5000830F6000A1226
:100108008A1104220A128A11013083120313AE00E5
:10011800051001302B02F43003192A020318952820
:10012800962898280512BC280516BC2801302D02EF
:10013800F43003192C02031CA228A328BC282E087B
:100148000319A728A828BC2880300A128A116E2112
:100158000A128A111430F5000830F6000A128A11C2
:1001680004220A128A1183120313AE010514982877
:10017800871CBF28C028E9280230FA004530F9005A
:10018800A930F800F80BC628F90BC628FA0BC628C0
:10019800CD2883120313871CD228D328E928AA0163
:1001A800AB01AF01C0300A128A116E210A128A11FE
:1001B8000B30F5000930F6000A128A1104220A12DF
:1001C8008A11831203138510051201302B02F430B3
:1001D80003192A020318F128F22818292F08031DE9
:1001E800F628F7281829C0300A128A116E210A1237
:1001F8008A110B30F5000930F6000A128A11042220
:100208000A128A11013083120313AF0085100130DE
:100218002D02F43003192C02031813291429162966
:1002280005123E2805163E2801302B02F43003192A
:100238002A02031C202921293E282F0803192529D1
:1002480026293E28C0300A128A116E210A128A1104
:100258000130F5000930F6000A128A1104220A1248
:100268008A1183120313AF01851416290A128A1101
:100278000C28F4007408F03983120313860006155D
:10028800861006140D30F300FB30F200F20B4A29F9
:10029800F30B4A294F298312031306117408F2003D
:1002A80003300310F20DFF3E031D55290310720D94
:1002B800F03986000615861006140D30F300FB3061
:1002C800F200F20B6529F30B65296A2983120313DF
:1002D80006110800F4007408F0398312031386002D
:1002E8000615861006100D30F300FB30F200F20BF5
:1002F8007B29F30B7B2980298312031306117408C9
:10030800F20003300310F20DFF3E031D862903108F
:10031800720DF03986000615861006100D30F300B0
:10032800FB30F200F20B9629F30B96299B298312D6
:1003380003130611080001308A000408840A8207A2
:1003480000344D34613472346934653420344E34A9
:100358004F344E3400344D3461347234693465346A
:1003680020344F344B3400344A346F34733465349A
:1003780020344E344F344E3400344A346F3473349E
:10038800653420344F344B34003402300A128A1159
:100398006E210A128A1128300A128A116E210A1255
:1003A8008A110C300A128A116E210A128A1106303B
:1003B8000A128A116E210A128A1101300A128A1150
:1003C8006E210A128A1108000B1DEB29EC29FD2960
:1003D800013083120313AC070318AD0A0030AD07D0
:1003E8000130AA070318AB0A0030AB070B113B30EA
:1003F800810071088A00700E8300FE0E7E0E0900CF
:10040800F701152A7708750784000A128A119F21B7
:100418000A128A110A128A113D210A128A11013020
:10042800F70776087702031C1A2A1B2A062A0800EF
:02400E00BB3FB6
:00000001FF
